:020000040800F2
:1000000000500020E9130008791300087F1300084E
:10001000851300088B1300089113000800000000EE
:10002000000000000000000000000000971300081E
:10003000A313000800000000AF130008BB13000862
:10004000311400083114000831140008311400087C
:10005000311400083114000831140008311400086C
:10006000311400083114000831140008311400085C
:10007000311400083114000831140008311400084C
:10008000311400083114000831140008311400083C
:10009000311400083114000831140008311400082C
:1000A000311400083114000831140008311400081C
:1000B000311400083114000831140008311400080C
:1000C00031140008311400083114000831140008FC
:1000D00031140008C9130008311400083114000855
:1000E0003114000831140008311400080000000029
:1000F0000000000000000000000000000000000000
:0C01000000000000000000005FF808F1A3
:10010C0010B5054C237833B9044B13B10448AFF345
:10011C0000800123237010BD18080020000000008F
:10012C004030000808B5034B1BB103490348AFF33B
:10013C00008008BD000000001C08002040300008B2
:10014C0080B5B6B000AFF860B9607A6007F1100303
:10015C00B0220021184602F065FF002387F8D73043
:10016C000FE097F8D730FA681A4497F8D73012781E
:10017C00D8333B4403F8C82C97F8D730013387F8B1
:10018C00D73097F8D7300F2BEBD9012387F8D6301F
:10019C0018E097F8D630013B07F110021B01D0187C
:1001AC0097F8D63007F110021B01D11897F8D6300A
:1001BC00013BDBB21A4600F059FE97F8D6300133FA
:1001CC0087F8D63097F8D6300A2BE2D9002387F877
:1001DC00D5300FE097F8D530BA681A4497F8D53077
:1001EC001278D8333B4403F8182C97F8D5300133E8
:1001FC0087F8D53097F8D5300F2BEBD907F1C00223
:10020C0007F110031146184600F016F9012387F880
:10021C00D4301FE007F1C003184600F02FF907F1A6
:10022C00C003184600F04AF907F1C003184600F065
:10023C0091F997F8D43007F110021B01134407F120
:10024C00C0021146184600F0F7F897F8D430013385
:10025C0087F8D43097F8D430092BDBD907F1C003D9
:10026C00184600F00BF907F1C003184600F026F908
:10027C0007F1C00207F11003A0331146184600F035
:10028C00DBF8002387F8D3300FE097F8D32097F8EA
:10029C00D33079680B44D8323A4412F8182C1A70BF
:1002AC0097F8D330013387F8D33097F8D3300F2B2E
:1002BC00EBD900BF00BFD837BD4680BD80B5B6B006
:1002CC0000AFF860B9607A6007F11003B02200212A
:1002DC00184602F0A7FE002387F8D7300FE097F8F6
:1002EC00D730FA681A4497F8D7301278D8333B4491
:1002FC0003F8C82C97F8D730013387F8D73097F824
:10030C00D7300F2BEBD9012387F8D63018E097F8AC
:10031C00D630013B07F110021B01D01897F8D630EC
:10032C0007F110021B01D11897F8D630013BDBB254
:10033C001A4600F09BFD97F8D630013387F8D6307B
:10034C0097F8D6300A2BE2D9002387F8D5300FE086
:10035C0097F8D530BA681A4497F8D5301278D83354
:10036C003B4403F8182C97F8D530013387F8D53077
:10037C0097F8D5300F2BEBD907F1C00207F110031A
:10038C00A0331146184600F057F807F1C003184681
:10039C0000F0E0FA07F1C003184600F08FFA0923C9
:1003AC0087F8D4301FE097F8D43007F110021B0106
:1003BC00134407F1C0021146184600F03DF807F14E
:1003CC00C003184600F0E6FA07F1C003184600F027
:1003DC00C1FA07F1C003184600F070FA97F8D43050
:1003EC00013B87F8D43097F8D430002BDBD107F1E0
:1003FC00C00207F110031146184600F01DF8002347
:10040C0087F8D3300FE097F8D32097F8D33079687A
:10041C000B44D8323A4412F8182C1A7097F8D3308F
:10042C00013387F8D33097F8D3300F2BEBD900BFBB
:10043C0000BFD837BD4680BD80B485B000AF7860B2
:10044C0039600023FB6010E0FB683A6813441978AC
:10045C00FB687A6813441A78FB68386803444A408E
:10046C00D2B21A70FB680133FB60FB680F2BEBDD1B
:10047C0000BF00BF1437BD4680BC704780B485B048
:10048C0000AF78600023FB730DE0FB7B7A681344AC
:10049C001B781946FB7B7A681344074A525C1A7026
:1004AC00FB7B0133FB73FB7B0F2BEED900BF00BF33
:1004BC001437BD4680BC70470000002080B489B062
:1004CC0000AF78607B681B783B737B685B797B73D0
:1004DC007B689B7ABB737B68DB7BFB737B681B79CC
:1004EC003B747B685B7A7B747B689B7BBB747B689F
:1004FC00DB78FB747B681B7A3B757B685B7B7B755D
:10050C007B689B78BB757B68DB79FB757B681B7B99
:10051C003B767B685B787B767B689B79BB767B686C
:10052C00DB7AFB760023FB610BE0FB697A681344F2
:10053C0007F10C01FA690A4412781A70FB6901334D
:10054C00FB61FB690F2BF0DD00BF00BF2437BD46FC
:10055C0080BC704780B495B000AF78607B681B7826
:10056C001A469A4B9A5C7B6801331B781946984B58
:10057C005B5C5340DAB27B6802331B785340DAB2CF
:10058C007B6803331B785340DBB2FB607B681A78C3
:10059C007B6801331B7819468C4B5B5C5340DAB299
:1005AC007B6802331B781946894B5B5C5340DAB28B
:1005BC007B6803331B785340DBB23B617B681A7852
:1005CC007B6801331B785340DAB27B6802331B78AB
:1005DC0019467E4B5B5C5340DAB27B6803331B7865
:1005EC0019467B4B5B5C5340DBB27B617B681B78B1
:1005FC001A46774B9A5C7B6801331B785340DAB20E
:10060C007B6802331B785340DAB27B6803331B7868
:10061C0019466E4B5B5C5340DBB2BB617B680433A9
:10062C001B781A46694B9A5C7B6805331B78194614
:10063C00674B5B5C5340DAB27B6806331B785340E4
:10064C00DAB27B6807331B785340DBB2FB617B6803
:10065C0004331A787B6805331B7819465B4B5B5C5B
:10066C005340DAB27B6806331B781946584B5B5CF7
:10067C005340DAB27B6807331B785340DBB23B62E2
:10068C007B6804331A787B6805331B785340DAB2E5
:10069C007B6806331B7819464C4B5B5C5340DAB2D3
:1006AC007B6807331B781946494B5B5C5340DBB2C4
:1006BC007B627B6804331B781A46454B9A5C7B68DB
:1006CC0005331B785340DAB27B6806331B785340F2
:1006DC00DAB27B6807331B7819463C4B5B5C5340A2
:1006EC00DBB2BB627B6808331B781A46374B9A5CCB
:1006FC007B6809331B781946354B5B5C5340DAB287
:10070C007B680A331B785340DAB27B680B331B7857
:10071C005340DBB2FB627B6808331A787B68093381
:10072C001B781946294B5B5C5340DAB27B680A3361
:10073C001B781946264B5B5C5340DAB27B680B3353
:10074C001B785340DBB23B637B6808331A787B68B9
:10075C0009331B785340DAB27B680A331B7819468D
:10076C001A4B5B5C5340DAB27B680B331B7819462F
:10077C00174B5B5C5340DBB27B637B6808331B78A5
:10078C001A46134B9A5C7B6809331B785340DAB2D8
:10079C007B680A331B785340DAB27B680B331B78C7
:1007AC0019460A4B5B5C5340DBB2BB637B680C3372
:1007BC001B781A46054B9A5C7B680D331B781946DF
:1007CC00034B5B5C5340DAB27B6803E00002002011
:1007DC00000300200E331B785340DAB27B680F33D2
:1007EC001B785340DBB2FB637B680C331A787B6855
:1007FC000D331B7819462F4B5B5C5340DAB27B6888
:10080C000E331B7819462C4B5B5C5340DAB27B6879
:10081C000F331B785340DBB23B647B680C331A7884
:10082C007B680D331B785340DAB27B680E331B7830
:10083C001946204B5B5C5340DAB27B680F331B7854
:10084C0019461D4B5B5C5340DBB27B647B680C33FD
:10085C001B781A46184B9A5C7B680D331B785340F7
:10086C00DAB27B680E331B785340DAB27B680F33F5
:10087C001B7819460F4B5B5C5340DBB2BB64002307
:10088C00FB640DE0FB6C9B0050333B4453F8441C61
:10089C00FB6C7A681344CAB21A70FB6C0133FB64AC
:1008AC00FB6C0F2BEEDD00BF00BF5437BD4680BC88
:1008BC00704700BF000200200003002080B489B004
:1008CC0000AF78607B681B783B737B685B7B7B73CA
:1008DC007B689B7ABB737B68DB79FB737B681B79CA
:1008EC003B747B685B787B747B689B7BBB747B689D
:1008FC00DB7AFB747B681B7A3B757B685B797B7559
:10090C007B689B78BB757B68DB7BFB757B681B7B93
:10091C003B767B685B7A7B767B689B79BB767B6866
:10092C00DB78FB760023FB610BE0FB697A681344F0
:10093C0007F10C01FA690A4412781A70FB69013349
:10094C00FB61FB690F2BF0DD00BF00BF2437BD46F8
:10095C0080BC704780B485B000AF78600023FB7317
:10096C000DE0FB7B7A6813441B781946FB7B7A6895
:10097C001344074A525C1A70FB7B0133FB73FB7BFD
:10098C000F2BEED900BF00BF1437BD4680BC70479B
:10099C000001002080B495B000AF78607B681B78B4
:1009AC001A469A4B9A5C7B6801331B781946984B14
:1009BC005B5C5340DAB27B6802331B781946954B6B
:1009CC005B5C5340DAB27B6803331B781946924B5D
:1009DC005B5C5340DBB2FB607B681B781A468E4B2A
:1009EC009A5C7B6801331B781946884B5B5C5340DF
:1009FC00DAB27B6802331B781946854B5B5C53403B
:100A0C00DAB27B6803331B781946824B5B5C53402C
:100A1C00DBB23B617B681B781A467E4B9A5C7B6829
:100A2C0001331B7819467C4B5B5C5340DAB27B6814
:100A3C0002331B781946754B5B5C5340DAB27B680A
:100A4C0003331B781946724B5B5C5340DBB27B6102
:100A5C007B681B781A466E4B9A5C7B6801331B785B
:100A6C0019466C4B5B5C5340DAB27B6802331B78E3
:100A7C001946694B5B5C5340DAB27B6803331B78D5
:100A8C001946624B5B5C5340DBB2BB617B68043341
:100A9C001B781A465D4B9A5C7B6805331B781946AC
:100AAC005B4B5B5C5340DAB27B6806331B781946B0
:100ABC00584B5B5C5340DAB27B6807331B781946A2
:100ACC00554B5B5C5340DBB2FB617B6804331B789A
:100ADC001A46514B9A5C7B6805331B7819464B4B75
:100AEC005B5C5340DAB27B6806331B781946484B83
:100AFC005B5C5340DAB27B6807331B781946454B75
:100B0C005B5C5340DBB23B627B6804331B781A4658
:100B1C00404B9A5C7B6805331B7819463E4B5B5CFB
:100B2C005340DAB27B6806331B781946374B5B5C53
:100B3C005340DAB27B6807331B781946344B5B5C45
:100B4C005340DBB27B627B6804331B781A46304B14
:100B5C009A5C7B6805331B7819462E4B5B5C5340C3
:100B6C00DAB27B6806331B7819462B4B5B5C53401F
:100B7C00DAB27B6807331B781946244B5B5C534015
:100B8C00DBB2BB627B6808331B781A461F4B9A5C3E
:100B9C007B6809331B7819461D4B5B5C5340DAB2FA
:100BAC007B680A331B7819461A4B5B5C5340DAB2EC
:100BBC007B680B331B781946174B5B5C5340DBB2DD
:100BCC00FB627B6808331B781A46134B9A5C7B6874
:100BDC0009331B7819460D4B5B5C5340DAB27B68CA
:100BEC000A331B7819460A4B5B5C5340DAB27B68BC
:100BFC000B331B781946074B5B5C5340DBB23B63F2
:100C0C007B6808331B781A4608E000BF0C070020ED
:100C1C000C0500200C0600200C040020674B9A5C8D
:100C2C007B6809331B781946654B5B5C5340DAB221
:100C3C007B680A331B781946624B5B5C5340DAB213
:100C4C007B680B331B7819465F4B5B5C5340DBB204
:100C5C007B637B6808331B781A465B4B9A5C7B681A
:100C6C0009331B781946554B5B5C5340DAB27B68F1
:100C7C000A331B781946524B5B5C5340DAB27B68E3
:100C8C000B331B7819464F4B5B5C5340DBB2BB6399
:100C9C007B680C331B781A464A4B9A5C7B680D3385
:100CAC001B781946484B5B5C5340DAB27B680E33B9
:100CBC001B781946414B5B5C5340DAB27B680F33AF
:100CCC001B7819463E4B5B5C5340DBB2FB637B6885
:100CDC000C331B781A463A4B9A5C7B680D331B78A5
:100CEC001946384B5B5C5340DAB27B680E331B7889
:100CFC001946354B5B5C5340DAB27B680F331B787B
:100D0C0019462E4B5B5C5340DBB23B647B680C3367
:100D1C001B781A46294B9A5C7B680D331B78194655
:100D2C00274B5B5C5340DAB27B680E331B78194659
:100D3C00244B5B5C5340DAB27B680F331B7819464B
:100D4C00214B5B5C5340DBB27B647B680C331B78C0
:100D5C001A461D4B9A5C7B680D331B781946174B52
:100D6C005B5C5340DAB27B680E331B781946144B2C
:100D7C005B5C5340DAB27B680F331B781946114B1E
:100D8C005B5C5340DBB2BB640023FB640DE0FB6C8B
:100D9C009B0050333B4453F8441CFB6C7A6813445F
:100DAC00CAB21A70FB6C0133FB64FB6C0F2BEEDDCB
:100DBC0000BF00BF5437BD4680BC70470C060020F6
:100DCC000C0400200C0700200C05002080B485B01A
:100DDC0000AF78600B46FB707B681B78FB737B68FD
:100DEC005A787B681A707B6801337A6892781A702B
:100DFC007B6802337A68D2781A707B680333FA7B8B
:100E0C001A707B681B781A46164B9A5C7B681A70B2
:100E1C007B6801331B7819467B680133114A525C9D
:100E2C001A707B6802331B7819467B6802330D4AB3
:100E3C00525C1A707B6803331B7819467B6803334A
:100E4C00084A525C1A707B681A78FB780649CB5CAE
:100E5C005340DAB27B681A7000BF1437BD4680BCB1
:100E6C00704700BF000000200004002080B586B051
:100E7C0000AFF860B9601346FB710023FB750CE002
:100E8C00FB7D0C33FA681A44FB7D127818333B4413
:100E9C0003F8082CFB7D0133FB75FB7D032BEFD98D
:100EAC00FA7907F1100311461846FFF78FFF00235C
:100EBC00BB7511E0BB7D18333B4413F8081CBB7D9C
:100ECC00FA6813441A78BB7DB86803444A40D2B21E
:100EDC001A70BB7D0133BB75BB7D032BEAD9042390
:100EEC007B7511E07B7DFA68134419787B7D043B9C
:100EFC00BA6813441A787B7DB86803444A40D2B26E
:100F0C001A707B7D01337B757B7D0F2BEAD900BF7B
:100F1C0000BF1837BD4680BD90B591B000AF00F052
:100F2C0083FA00F057F800F00FF900F08FF800F09A
:100F3C00B7F800F0DFF8224B07F130040FCB84E850
:100F4C000F00204B07F120040FCB84E80F0007F1B2
:100F5C0020014FF0FF3310221B4801F06BFA0023E5
:100F6C003B6107F1140300221A605A609A60002357
:100F7C003B603B1D00221A605A609A6007F1100218
:100F8C0007F1200107F130031846FFF7D9F807F1F4
:100F9C0010014FF0FF3310220C4801F04BFA3A4687
:100FAC0007F1100107F130031846FFF787F93946AE
:100FBC004FF0FF331022064801F03CFAFEE700BF69
:100FCC005830000868300008C4080020340800209D
:100FDC007C08002080B590B000AF07F118032822E0
:100FEC000021184602F01EF83B1D00221A605A60C0
:100FFC009A60DA601A610223BB610123BB62102381
:10100C00FB6200237B6307F11803184600F0B2FD66
:10101C000346002B01D000F0B9F80F237B600023AE
:10102C00BB600023FB6000233B6100237B613B1D05
:10103C000021184601F020F80346002B01D000F0E7
:10104C00A5F800BF4037BD4680BD000080B500AF9D
:10105C00114B124A1A60104B4FF4E1325A600E4B8E
:10106C0000229A600C4B0022DA600B4B00221A61B2
:10107C00094B0C225A61084B00229A61064B002244
:10108C00DA61054801F086F90346002B01D000F027
:10109C007DF800BF80BD00BF34080020003801403F
:1010AC0080B500AF114B124A1A60104B4FF4E1326D
:1010BC005A600E4B00229A600C4B0022DA600B4BEC
:1010CC0000221A61094B0C225A61084B00229A61CA
:1010DC00064B0022DA61054801F05CF90346002B4F
:1010EC0001D000F053F800BF80BD00BF7C08002089
:1010FC000044004080B500AF114B124A1A60104BEF
:10110C004FF4E1325A600E4B00229A600C4B0022D5
:10111C00DA600B4B00221A61094B0C225A61084B06
:10112C0000229A61064B0022DA61054801F032F97F
:10113C000346002B01D000F029F800BF80BD00BF92
:10114C00C40800200048004080B483B000AF0E4BB0
:10115C009B690D4A43F0040393610B4B9B6903F0AD
:10116C0004037B607B68084B9B69074A43F00803C8
:10117C009361054B9B6903F008033B603B6800BF20
:10118C000C37BD4680BC70470010024080B400AFE5
:10119C0072B600BFFEE7000080B483B000AF0E4B08
:1011AC009B690D4A43F0010393610B4B9B6903F060
:1011BC0001037B607B68084BDB69074A43F0805373
:1011CC00D361054BDB6903F080533B603B6800BF88
:1011DC000C37BD4680BC70470010024080B58CB007
:1011EC0000AF786007F1200300221A605A609A6001
:1011FC00DA607B681B68574A93423AD1564B9B691D
:10120C00554A43F480439361534B9B6903F48043E9
:10121C00FB61FB69504B9B694F4A43F0040393619C
:10122C004D4B9B6903F00403BB61BB694FF4007326
:10123C003B6202237B620323FB6207F12003194606
:10124C00464800F013FB4FF480633B6200237B6243
:10125C000023BB6207F120031946404800F006FB4F
:10126C0000220021252000F018FA252000F031FA88
:10127C006CE07B681B683A4A934230D1364BDB6991
:10128C00354A43F40033D361334BDB6903F4003349
:10129C007B617B69304B9B692F4A43F0040393615C
:1012AC002D4B9B6903F004033B613B6904233B62B8
:1012BC0002237B620323FB6207F1200319462748B4
:1012CC0000F0D4FA08233B6200237B620023BB624C
:1012DC0007F120031946214800F0C8FA36E07B6874
:1012EC001B68204A934231D11B4BDB691A4A43F4E9
:1012FC008023D361184BDB6903F48023FB60FB680C
:10130C00154B9B69144A43F008039361124B9B697C
:10131C0003F00803BB60BB684FF480633B6202239D
:10132C007B620323FB6207F1200319460E4800F091
:10133C009DFA4FF400633B6200237B620023BB6287
:10134C0007F120031946084800F090FA00BF303727
:10135C00BD4680BD0038014000100240000801402D
:10136C000044004000480040000C014080B400AF35
:10137C00FEE780B400AFFEE780B400AFFEE780B4B8
:10138C0000AFFEE780B400AFFEE780B400AF00BF53
:10139C00BD4680BC704780B400AF00BFBD4680BC6A
:1013AC00704780B400AF00BFBD4680BC704780B5AD
:1013BC0000AF00F07FF800BF80BD000080B500AF2B
:1013CC00024801F0BBF800BF80BD00BF340800200C
:1013DC0080B400AF00BFBD4680BC7047FFF7F8FF7C
:1013EC000B480C490C4A002302E0D458C450043377
:1013FC00C4188C42F9D3094A094C002301E013604C
:10140C000432A242FBD301F0E9FDFFF785FD7047E2
:10141C000000002018080020AC300008180800203C
:10142C0010090020FEE7000080B500AF084B1B68D8
:10143C00074A43F010031360032000F023F90F2038
:10144C0000F008F8FFF7A8FE0023184680BD00BF87
:10145C000020024080B582B000AF7860124B1A6851
:10146C00124B1B7819464FF47A73B3FBF1F3B2FBB2
:10147C00F3F3184600F03BF90346002B01D001238F
:10148C000EE07B680F2B0AD8002279684FF0FF30F2
:10149C0000F003F9064A7B681360002300E0012387
:1014AC0018460837BD4680BD0C08002014080020E3
:1014BC001008002080B400AF054B1B781A46054B72
:1014CC001B681344034A136000BFBD4680BC7047C1
:1014DC00140800200C09002080B400AF024B1B68DC
:1014EC001846BD4680BC70470C09002080B485B0FE
:1014FC0000AF78607B6803F00703FB600C4BDB6884
:10150C00BB60BA684FF6FF031340BB60FB681A025E
:10151C00BB68134343F0BF6343F40033BB60044A1E
:10152C00BB68D36000BF1437BD4680BC704700BF9A
:10153C0000ED00E080B400AF044BDB681B0A03F045
:10154C0007031846BD4680BC704700BF00ED00E0A5
:10155C0080B483B000AF0346FB7197F90730002BC2
:10156C000BDBFB7903F01F02064997F907305B0987
:10157C00012000FA02F241F8232000BF0C37BD46CF
:10158C0080BC704700E100E080B483B000AF03463C
:10159C003960FB7197F90730002B0ADB3B68DAB234
:1015AC000C4997F907301201D2B20B4483F800238F
:1015BC000AE03B68DAB20849FB7903F00F03043BFD
:1015CC001201D2B20B441A7600BF0C37BD4680BC58
:1015DC00704700BF00E100E000ED00E080B489B08E
:1015EC0000AFF860B9607A60FB6803F00703FB6139
:1015FC00FB69C3F10703042B28BF0423BB61FB6900
:10160C000433062B02D9FB69033B00E000237B610A
:10161C004FF0FF32BB6902FA03F3DA43BB681A409E
:10162C007B699A404FF0FF317B6901FA03F3D94390
:10163C007B680B40134318462437BD4680BC70476B
:10164C0080B582B000AF78607B68013BB3F1807FDE
:10165C0001D301230FE00A4A7B68013B53600F2141
:10166C004FF0FF30FFF790FF054B00229A60044BC0
:10167C0007221A60002318460837BD4680BD00BFFC
:10168C0010E000E080B582B000AF78607868FFF7BA
:10169C002DFF00BF0837BD4680BD80B586B000AFBA
:1016AC000346B9607A60FB7300237B61FFF742FF4E
:1016BC0078617A68B9687869FFF790FF024697F904
:1016CC000F3011461846FFF75FFF00BF1837BD46B5
:1016DC0080BD80B582B000AF0346FB7197F907302F
:1016EC001846FFF735FF00BF0837BD4680BD80B5F3
:1016FC0082B000AF78607868FFF7A2FF0346184607
:10170C000837BD4680BD80B485B000AF786000233B
:10171C00FB737B6893F82130DBB2022B08D07B681B
:10172C0004229A637B68002283F82020012320E0A6
:10173C007B681B681A687B681B6822F00E021A60B3
:10174C007B681B681A687B681B6822F001021A60B0
:10175C007B681A6C7B68DB6B012101FA02F25A6020
:10176C007B68012283F821207B68002283F82020EB
:10177C00FB7B18461437BD4680BC704780B584B0DF
:10178C0000AF78600023FB737B6893F82130DBB2E9
:10179C00022B05D07B6804229A630123FB7351E072
:1017AC007B681B681A687B681B6822F00E021A6043
:1017BC007B681B681A687B681B6822F001021A6040
:1017CC007B681B68224A934229D07B681B68214A9C
:1017DC00934222D07B681B681F4A93421AD07B68C5
:1017EC001B681E4A934212D07B681B681C4A9342AA
:1017FC000AD07B681B681B4A934202D14FF48013BA
:10180C000EE04FF080730BE04FF4803308E04FF4A0
:10181C00805305E04FF4807302E0102300E00123B5
:10182C00114A53607B68012283F821207B680022D7
:10183C0083F820207B685B6B002B03D07B685B6B91
:10184C0078689847FB7B18461037BD4680BD00BFB3
:10185C00080002401C0002403000024044000240DC
:10186C00580002406C0002400000024080B48BB073
:10187C0000AF7860396000237B6200233B6269E132
:10188C0001227B6A02FA03F3FB613B681B68FA696D
:10189C001340BB61BA69FB699A4240F058813B68BE
:1018AC005B689A4A93425ED0984A934275D8984A9C
:1018BC00934258D0964A93426FD8964A934252D04C
:1018CC00944A934269D8944A93424CD0924A934298
:1018DC0063D8924A934246D0904A93425DD8122BD9
:1018EC002AD8122B59D801A252F823F073190008E8
:1018FC004D1900085F190008A1190008A719000864
:10190C00A7190008A7190008A7190008A7190008AB
:10191C00A7190008A7190008A7190008A71900089B
:10192C00A7190008A7190008A7190008A71900088B
:10193C005519000869190008794A934213D02CE014
:10194C003B68DB683B6229E03B68DB6804333B6245
:10195C0024E03B68DB6808333B621FE03B68DB68D4
:10196C000C333B621AE03B689B68002B02D10423CA
:10197C003B6213E03B689B68012B05D108233B625B
:10198C007B68FA691A6109E008233B627B68FA6993
:10199C005A6103E000233B6200E000BFBB69FF2BF0
:1019AC0001D87B6801E07B6804337B61BB69FF2B4A
:1019BC0002D87B6A9B0002E07B6A083B9B003B6180
:1019CC007B691A680F213B6901FA03F3DB431A4068
:1019DC00396A3B6901FA03F31A437B691A603B6865
:1019EC005B6803F08053002B00F0B1804D4B9B697A
:1019FC004C4A43F0010393614A4B9B6903F001038A
:101A0C00BB60BB68484A7B6A9B08023352F82330A0
:101A1C00FB607B6A03F003039B000F2202FA03F3C3
:101A2C00DB43FA681340FB607B68404A934213D057
:101A3C007B683F4A93420DD07B683E4A934207D065
:101A4C007B683D4A934201D1032306E0042304E062
:101A5C00022302E0012300E000237A6A02F0030271
:101A6C0092009340FA681343FB602F497B6A9B08F2
:101A7C000233FA6841F823203B685B6803F4801357
:101A8C00002B06D02D4B9A682C49BB6913438B60F5
:101A9C0006E02A4B9A68BB69DB43284913408B60EC
:101AAC003B685B6803F40013002B06D0234BDA6809
:101ABC002249BB691343CB6006E0204BDA68BB6953
:101ACC00DB431E491340CB603B685B6803F4003377
:101ADC00002B06D0194B5A681849BB6913434B604D
:101AEC0006E0164B5A68BB69DB43144913404B6044
:101AFC003B685B6803F48033002B21D00F4B1A68D2
:101B0C000E49BB6913430B6021E000BF000032108B
:101B1C0000003110000022100000211000001210F3
:101B2C0000001110001002400000014000080140AC
:101B3C00000C014000100140001401400004014061
:101B4C000B4B1A68BB69DB43094913400B607B6A7A
:101B5C0001337B623B681A687B6A22FA03F3002B21
:101B6C007FF48EAE00BF00BF2C37BD4680BC7047E3
:101B7C000004014080B586B000AF78607B68002B14
:101B8C0001D1012372E27B681B6803F00103002B77
:101B9C0000F08780924B5B6803F00C03042B0CD095
:101BAC008F4B5B6803F00C03082B12D18C4B5B68DA
:101BBC0003F48033B3F5803F0BD1894B1B6803F4DE
:101BCC000033002B6CD07B685B68002B68D1012341
:101BDC004CE27B685B68B3F5803F06D1804B1B6899
:101BEC007F4A43F4803313602EE07B685B68002BE4
:101BFC000CD17B4B1B687A4A23F480331360784BEF
:101C0C001B68774A23F4802313601DE07B685B68B4
:101C1C00B3F5A02F0CD1724B1B68714A43F480238F
:101C2C0013606F4B1B686E4A43F4803313600BE0F8
:101C3C006B4B1B686A4A23F480331360684B1B6838
:101C4C00674A23F4802313607B685B68002B13D0F6
:101C5C00FFF742FC386108E0FFF73EFC02463B69A7
:101C6C00D31A642B01D9032300E25D4B1B6803F4E8
:101C7C000033002BF0D014E0FFF72EFC386108E0A5
:101C8C00FFF72AFC02463B69D31A642B01D90323C4
:101C9C00ECE1534B1B6803F40033002BF0D100E054
:101CAC0000BF7B681B6803F00203002B63D04C4B16
:101CBC005B6803F00C03002B0BD0494B5B6803F003
:101CCC000C03082B1CD1464B5B6803F48033002BB0
:101CDC0016D1434B1B6803F00203002B05D07B6825
:101CEC001B69012B01D00123C0E13D4B1B6823F084
:101CFC00F8027B685B69DB00394913430B603AE0FF
:101D0C007B681B69002B20D0364B01221A60FFF731
:101D1C00E3FB386108E0FFF7DFFB02463B69D31AAF
:101D2C00022B01D90323A1E12D4B1B6803F0020305
:101D3C00002BF0D02A4B1B6823F0F8027B685B6900
:101D4C00DB00274913430B6015E0264B00221A6079
:101D5C00FFF7C2FB386108E0FFF7BEFB02463B69A8
:101D6C00D31A022B01D9032380E11D4B1B6803F00E
:101D7C000203002BF0D17B681B6803F00803002BD7
:101D8C003AD07B689B69002B19D0174B01221A6043
:101D9C00FFF7A2FB386108E0FFF79EFB02463B69A8
:101DAC00D31A022B01D9032360E10D4B5B6A03F0BC
:101DBC000203002BF0D0012000F0CEFA1CE00A4BFD
:101DCC0000221A60FFF788FB38610FE0FFF784FBF5
:101DDC0002463B69D31A022B08D9032346E100BF04
:101DEC00001002400000424280044242924B5B6A67
:101DFC0003F00203002BE9D17B681B6803F004039A
:101E0C00002B00F0A6800023FB758B4BDB6903F0E5
:101E1C008053002B0DD1884BDB69874A43F08053EC
:101E2C00D361854BDB6903F08053BB60BB68012336
:101E3C00FB75824B1B6803F48073002B18D17F4B0E
:101E4C001B687E4A43F480731360FFF745FB3861CF
:101E5C0008E0FFF741FB02463B69D31A642B01D91A
:101E6C00032303E1754B1B6803F48073002BF0D044
:101E7C007B68DB68012B06D16F4B1B6A6E4A43F003
:101E8C00010313622DE07B68DB68002B0CD16A4BDD
:101E9C001B6A694A23F001031362674B1B6A664A8B
:101EAC0023F0040313621CE07B68DB68052B0CD168
:101EBC00614B1B6A604A43F0040313625E4B1B6A5E
:101ECC005D4A43F0010313620BE05B4B1B6A5A4AF9
:101EDC0023F001031362584B1B6A574A23F0040387
:101EEC0013627B68DB68002B15D0FFF7F5FA3861BD
:101EFC000AE0FFF7F1FA02463B69D31A41F2883245
:101F0C00934201D90323B1E04B4B1B6A03F002034C
:101F1C00002BEED014E0FFF7DFFA38610AE0FFF790
:101F2C00DBFA02463B69D31A41F28832934201D95B
:101F3C0003239BE0404B1B6A03F00203002BEED102
:101F4C00FB7D012B05D13C4BDB693B4A23F08053D5
:101F5C00D3617B68DB69002B00F08780364B5B68B4
:101F6C0003F00C03082B61D07B68DB69022B46D194
:101F7C00334B00221A60FFF7AFFA386108E0FFF725
:101F8C00ABFA02463B69D31A022B01D903236DE04D
:101F9C00294B1B6803F00073002BF0D17B681B6A84
:101FAC00B3F5803F08D1244B5B6823F400327B6887
:101FBC009B68214913434B601F4B5B6823F47412DD
:101FCC007B68196A7B685B6A0B431B4913434B6044
:101FDC001B4B01221A60FFF77FFA386108E0FFF70C
:101FEC007BFA02463B69D31A022B01D903233DE04D
:101FFC00114B1B6803F00073002BF0D035E0104B35
:10200C0000221A60FFF768FA386108E0FFF764FAFB
:10201C0002463B69D31A022B01D9032326E0064B57
:10202C001B6803F00073002BF0D11EE07B68DB69AA
:10203C00012B07D1012319E0001002400070004071
:10204C00600042420B4B5B68FB60FB6803F4803220
:10205C007B681B6A9A4206D1FB6803F470127B689A
:10206C005B6A9A4201D0012300E00023184618371E
:10207C00BD4680BD0010024080B584B000AF7860D2
:10208C0039607B68002B01D10123D0E06A4B1B68BF
:10209C0003F007033A689A4210D9674B1B6823F088
:1020AC00070265493B6813430B60634B1B6803F0E5
:1020BC0007033A689A4201D00123B8E07B681B6899
:1020CC0003F00203002B20D07B681B6803F0040391
:1020DC00002B05D0594B5B68584A43F4E0635360BE
:1020EC007B681B6803F00803002B05D0534B5B681F
:1020FC00524A43F460535360504B5B6823F0F00238
:10210C007B689B684D4913434B607B681B6803F0ED
:10211C000103002B40D07B685B68012B07D1474B38
:10212C001B6803F40033002B15D101237FE07B687F
:10213C005B68022B07D1414B1B6803F00073002B2B
:10214C0009D1012373E03D4B1B6803F00203002B04
:10215C0001D101236BE0394B5B6823F003027B68F0
:10216C005B68364913434B60FFF7B6F9F8600AE039
:10217C00FFF7B2F90246FB68D31A41F28832934258
:10218C0001D9032353E02D4B5B6803F00C027B68F1
:10219C005B689B009A42EBD1274B1B6803F007034B
:1021AC003A689A4210D2244B1B6823F0070222494A
:1021BC003B6813430B60204B1B6803F007033A6822
:1021CC009A4201D0012332E07B681B6803F00403C0
:1021DC00002B08D0194B5B6823F4E0627B68DB684A
:1021EC00164913434B607B681B6803F00803002BF4
:1021FC0009D0124B5B6823F460527B681B69DB00CF
:10220C000E4913434B6000F021F802460B4B5B6800
:10221C001B0903F00F030A49CB5C22FA03F3094AAA
:10222C001360094B1B681846FFF714F90023184676
:10223C001037BD4680BD00BF002002400010024098
:10224C00783000080C0800201008002080B487B0FB
:10225C0000AF0023FB600023BB6000237B610023E5
:10226C007B6000233B611E4B5B68FB60FB6803F0EB
:10227C000C03042B02D0082B03D027E0194B3B6135
:10228C0027E0FB689B0C03F00F03174AD35C7B60C1
:10229C00FB6803F48033002B10D0114B5B685B0C94
:1022AC0003F00103114AD35CBB607B680D4A03FB4E
:1022BC0002F2BB68B2FBF3F37B6104E07B680C4A6F
:1022CC0002FB03F37B617B693B6102E0054B3B61E5
:1022DC0000BF3B6918461C37BD4680BC704700BF29
:1022EC000010024000127A0090300008A030000864
:1022FC0000093D0080B400AF024B1B681846BD4678
:10230C0080BC70470C08002080B500AFFFF7F2FFCF
:10231C000246054B5B681B0A03F007030349CB5CC1
:10232C0022FA03F3184680BD0010024088300008E2
:10233C0080B500AFFFF7DEFF0246054B5B68DB0A9A
:10234C0003F007030349CB5C22FA03F3184680BD64
:10235C00001002408830000880B485B000AF78606F
:10236C000A4B1B680A4AA2FB03235B0A7A6802FB2E
:10237C0003F3FB6000BFFB685A1EFA60002BF9D117
:10238C0000BF00BF1437BD4680BC70470C0800204E
:10239C00D34D621080B582B000AF78607B68002BA3
:1023AC0001D1012342E07B6893F84130DBB2002B72
:1023BC0006D17B68002283F840207868FEF70EFF78
:1023CC007B68242283F841207B681B68DA687B6871
:1023DC001B6822F40052DA60786800F071FD7B68AB
:1023EC001B681A697B681B6822F490421A617B682F
:1023FC001B685A697B681B6822F02A025A617B6849
:10240C001B68DA687B681B6842F40052DA607B68F0
:10241C0000225A647B68202283F841207B682022AA
:10242C0083F842207B6800225A6300231846083741
:10243C00BD4680BD80B58AB002AFF860B9603B6024
:10244C001346FB8000237B61FB6893F84130DBB2C1
:10245C00202B6DD1BB68002B02D0FB88002B01D147
:10246C00012366E0FB6800225A64FB68212283F892
:10247C004120FFF731F87861FB68FA889A84FB6891
:10248C00FA88DA84FB689B68B3F5805F08D1FB6837
:10249C001B69002B04D10023FB61BB68BB6103E00B
:1024AC00BB68FB610023BB612AE03B6800937B693E
:1024BC0000228021F86800F0F9FA0346002B01D0C5
:1024CC00032336E0FB69002B0BD1BB691B881A4632
:1024DC00FB681B68C2F308025A60BB690233BB611C
:1024EC0007E0FB691A78FB681B685A60FB690133CB
:1024FC00FB61FB68DB8C9BB2013B9AB2FB68DA8414
:10250C00FB68DB8C9BB2002BCFD13B6800937B69C3
:10251C0000224021F86800F0C9FA0346002B01D0D4
:10252C00032306E0FB68202283F84120002300E00F
:10253C00022318462037BD4680BD000080B5BAB0D6
:10254C0000AF78607B681B681B68C7F8E4307B6859
:10255C001B68DB68C7F8E0307B681B685B69C7F8F1
:10256C00DC300023C7F8D8300023C7F8D430D7F8B4
:10257C00E43003F00F03C7F8D830D7F8D830002B6D
:10258C000FD1D7F8E43003F02003002B09D0D7F893
:10259C00E03003F02003002B03D0786800F0D1FB6F
:1025AC005BE2D7F8D830002B00F0DE80D7F8DC30B7
:1025BC0003F00103002B06D1D7F8E03003F490733D
:1025CC00002B00F0D180D7F8E43003F00103002B8E
:1025DC000BD0D7F8E03003F48073002B05D07B6868
:1025EC005B6C43F001027B685A64D7F8E43003F06B
:1025FC000403002B0BD0D7F8DC3003F00103002BC5
:10260C0005D07B685B6C43F002027B685A64D7F898
:10261C00E43003F00203002B0BD0D7F8DC3003F0CE
:10262C000103002B05D07B685B6C43F004027B68D4
:10263C005A64D7F8E43003F00803002B11D0D7F814
:10264C00E03003F02003002B05D1D7F8DC3003F089
:10265C000103002B05D07B685B6C43F008027B68A0
:10266C005A647B685B6C002B00F0F281D7F8E43085
:10267C0003F02003002B08D0D7F8E03003F0200340
:10268C00002B02D0786800F05CFB7B681B685B69F0
:10269C0003F04003002B14BF01230023DBB2C7F867
:1026AC00D4307B685B6C03F00803002B03D1D7F8A4
:1026BC00D430002B4FD0786800F066FA7B681B682A
:1026CC005B6903F04003002B41D07B681B6814331B
:1026DC00C7F89C30D7F89C3053E8003FC7F89830C7
:1026EC00D7F8983023F04003C7F8D0307B681B68CC
:1026FC001433D7F8D020C7F8A820C7F8A430D7F8DF
:10270C00A410D7F8A82041E80023C7F8A030D7F8C8
:10271C00A030002BD9D17B68DB6B002B13D07B68EE
:10272C00DB6B7E4A5A637B68DB6B1846FFF726F837
:10273C000346002B16D07B68DB6B5B6B7A68D26B25
:10274C00104698470EE0786800F09CF90AE078682B
:10275C0000F098F906E0786800F094F97B680022A4
:10276C005A6475E100BF73E17B681B6B012B40F071
:10277C004F81D7F8E43003F01003002B00F04881B0
:10278C00D7F8E03003F01003002B00F04181002358
:10279C00BB607B681B681B68BB607B681B685B68E5
:1027AC00BB60BB687B681B685B6903F04003002B54
:1027BC0000F0B6807B68DB6B1B685B68A7F8BE30EB
:1027CC00B7F8BE30002B00F045817B689B8DB7F8C5
:1027DC00BE209A4280F03E817B68B7F8BE20DA8535
:1027EC007B68DB6B9B69202B00F088807B681B6807
:1027FC000C33C7F88830D7F8883053E8003FC7F857
:10280C008430D7F8843023F48073C7F8B8307B68F1
:10281C001B680C33D7F8B820C7F89420C7F8903051
:10282C00D7F89010D7F8942041E80023C7F88C30E3
:10283C00D7F88C30002BD9D17B681B6814337B679D
:10284C007B6F53E8003F3B673B6F23F00103C7F8F6
:10285C00B4307B681B681433D7F8B420C7F88020D9
:10286C00FB67F96FD7F8802041E80023BB67BB6F8B
:10287C00002BE1D17B681B6814333B663B6E53E83D
:10288C00003FFB65FB6D23F04003C7F8B0307B685D
:10289C001B681433D7F8B020FA66BB66B96EFA6EB3
:1028AC0041E800237B667B6E002BE3D17B68202202
:1028BC0083F842207B6800221A637B681B680C3308
:1028CC00FB64FB6C53E8003FBB64BB6C23F0100350
:1028DC00C7F8AC307B681B680C33D7F8AC20BA65F2
:1028EC007B65796DBA6D41E800233B653B6D002B30
:1028FC00E3D17B68DB6B1846FEF705FF7B68022291
:10290C005A637B689A8D7B68DB8D9BB2D31A9BB222
:10291C001946786800F0BFF89CE000BF592C0008FD
:10292C007B689A8D7B68DB8D9BB2D31AA7F8CE306F
:10293C007B68DB8D9BB2002B00F08E80B7F8CE301D
:10294C00002B00F089807B681B680C33BB63BB6B6E
:10295C0053E8003F7B637B6B23F49073C7F8C8305C
:10296C007B681B680C33D7F8C8207A643B64396CDD
:10297C007A6C41E80023FB63FB6B002BE3D17B6893
:10298C001B6814337B627B6A53E8003F3B623B6AF3
:10299C0023F00103C7F8C4307B681B681433D7F8E5
:1029AC00C4203A63FB62F96A3A6B41E80023BB62CC
:1029BC00BB6A002BE3D17B68202283F842207B6822
:1029CC0000221A637B681B680C333B613B6953E83C
:1029DC00003FFB60FB6823F01003C7F8C0307B6836
:1029EC001B680C33D7F8C020FA61BB61B969FA696E
:1029FC0041E800237B617B69002BE3D17B680222D9
:102A0C005A63B7F8CE301946786800F044F823E0E2
:102A1C00D7F8E43003F08003002B09D0D7F8E0306E
:102A2C0003F08003002B03D0786800F023F914E046
:102A3C00D7F8E43003F04003002B0ED0D7F8E03089
:102A4C0003F04003002B08D0786800F062F904E032
:102A5C0000BF02E000BF00E000BFE837BD4680BD0C
:102A6C0080B483B000AF786000BF0C37BD4680BC2B
:102A7C00704780B483B000AF786000BF0C37BD46A0
:102A8C0080BC704780B483B000AF786000BF0C3757
:102A9C00BD4680BC704780B483B000AF78600B46F5
:102AAC007B8000BF0C37BD4680BC704780B590B0B2
:102ABC0000AFF860B9603B601346FB7150E0BB6C33
:102ACC00B3F1FF3F4CD0BB6C002B07D0FEF704FDDD
:102ADC0002463B68D31ABA6C9A4241D2FB681B6817
:102AEC000C33BB62BB6A53E8003F7B627B6A23F406
:102AFC00D073FB63FB681B680C33FA6B7A633B6324
:102B0C00396B7A6B41E80023FB62FB6A002BE5D141
:102B1C00FB681B6814337B617B6953E8003F3B61A6
:102B2C003B6923F00103BB63FB681B681433BA6B6E
:102B3C003A62FB61F9693A6A41E80023BB61BB69FF
:102B4C00002BE5D1FB68202283F84120FB68202272
:102B5C0083F84220FB68002283F8402003230FE017
:102B6C00FB681B681A68BB681340BA689A420CBFB2
:102B7C0001230023DBB21A46FB799A429FD0002333
:102B8C0018464037BD4680BD80B495B000AF786024
:102B9C007B681B680C337B637B6B53E8003F3B63A8
:102BAC003B6B23F49073FB647B681B680C33FA6CEF
:102BBC003A64FB63F96B3A6C41E80023BB63BB6B73
:102BCC00002BE5D17B681B6814333B623B6A53E8EE
:102BDC00003FFB61FB6923F00103BB647B681B684E
:102BEC001433BA6CFA62BB62B96AFA6A41E8002320
:102BFC007B627B6A002BE5D17B681B6B012B19D1A7
:102C0C007B681B680C33FB60FB6853E8003FBB60C0
:102C1C00BB6823F010037B647B681B680C337A6CF5
:102C2C00BA617B617969BA6941E800233B613B6910
:102C3C00002BE5D17B68202283F842207B680022A0
:102C4C001A6300BF5437BD4680BC704780B584B052
:102C5C0000AF78607B685B6AFB60FB680022DA85FA
:102C6C00FB680022DA84F868FFF70CFF00BF10370E
:102C7C00BD4680BD80B485B000AF78607B6893F8AA
:102C8C004130DBB2212B3ED17B689B68B3F5805F72
:102C9C0014D17B681B69002B10D17B681B6AFB600D
:102CAC00FB681B881A467B681B68C2F308025A60D3
:102CBC007B681B6A9A1C7B681A6208E07B681B6A3B
:102CCC00591C7A6811621A787B681B685A607B6899
:102CDC00DB8C9BB2013B9BB27A681946D184002BEA
:102CEC000FD17B681B68DA687B681B6822F0800256
:102CFC00DA607B681B68DA687B681B6842F040020C
:102D0C00DA60002300E0022318461437BD4680BC6D
:102D1C00704780B582B000AF78607B681B68DA685A
:102D2C007B681B6822F04002DA607B68202283F803
:102D3C0041207868FFF794FE002318460837BD46FB
:102D4C0080BD80B58CB000AF78607B6893F8423062
:102D5C00DBB2222B40F0AE807B689B68B3F5805FC2
:102D6C0017D17B681B69002B13D10023FB627B6896
:102D7C009B6ABB627B681B685B689BB2C3F30803EE
:102D8C009AB2BB6A1A807B689B6A9A1C7B689A62AF
:102D9C0026E07B689B6AFB620023BB627B689B68B6
:102DAC00B3F5805F07D07B689B68002B0AD17B68EA
:102DBC001B69002B06D17B681B685B68DAB2FB6A67
:102DCC001A7008E07B681B685B68DBB203F07F035A
:102DDC00DAB2FB6A1A707B689B6A5A1C7B689A622F
:102DEC007B68DB8D9BB2013B9BB27A681946D1851F
:102DFC00002B5DD17B681B68DA687B681B6822F04E
:102E0C002002DA607B681B68DA687B681B6822F436
:102E1C008072DA607B681B685A697B681B6822F0D9
:102E2C0001025A617B68202283F842207B680022D1
:102E3C005A637B681B6B012B35D17B6800221A63AC
:102E4C007B681B680C337B617B6953E8003F3B61FB
:102E5C003B6923F010037B627B681B680C337A6A36
:102E6C003A62FB61F9693A6A41E80023BB61BB69CC
:102E7C00002BE5D17B681B681B6803F01003102B3B
:102E8C000AD10023FB607B681B681B68FB607B68B6
:102E9C001B685B68FB60FB687B689B8D19467868D8
:102EAC00FFF7F9FD02E07868FFF7E3FD002302E08D
:102EBC00002300E0022318463037BD4680BD0000D9
:102ECC0080B584B000AF78607B681B681B6923F405
:102EDC0040517B68DA687B681B680A431A617B681F
:102EEC009A687B681B691A437B685B691343BB60F8
:102EFC007B681B68DB6823F4B05323F00C037A68FF
:102F0C001268B9680B43D3607B681B685B6923F458
:102F1C0040717B689A697B681B680A435A617B68BD
:102F2C001B682C4A934203D1FFF702FAF86002E0C7
:102F3C00FFF7EAF9F860FA6813469B0013449A000D
:102F4C001A447B685B689B00B2FBF3F3224AA2FB3A
:102F5C0003235B091901FA6813469B0013449A007A
:102F6C001A447B685B689B00B2FBF3F21A4BA3FB21
:102F7C0002035B09642000FB03F3D31A1B013233F9
:102F8C00154AA2FB03235B0903F0F0031944FA680A
:102F9C0013469B0013449A001A447B685B689B00A1
:102FAC00B2FBF3F20C4BA3FB02035B09642000FBA6
:102FBC0003F3D31A1B013233074AA2FB03235B0929
:102FCC0003F00F027B681B680A449A6000BF10373D
:102FDC00BD4680BD003801401F85EB5170B5002601
:102FEC000C4D0D4C641BA410A64209D100F022F824
:102FFC0000260A4D0A4C641BA410A64205D170BDD4
:10300C0055F8043B98470136EEE755F8043B9847D2
:10301C000136F2E7A4300008A4300008A430000800
:10302C00A830000803460244934200D1704703F8CD
:10303C00011BF9E7F8B500BFF8BC08BC9E46704709
:0C304C00F8B500BFF8BC08BC9E467047F9
:1030580054776F204F6E65204E696E652054776FE8
:103068005468617473206D79204B756E67204675BE
:103078000000000000000000010203040607080920
:103088000000000001020304020304050607080902
:0C3098000A0B0C0D0E0F101001020000BE
:0430A40031010008EE
:0430A8000D0100080E
:1030AC00637C777BF26B6FC53001672BFED7AB76F9
:1030BC00CA82C97DFA5947F0ADD4A2AF9CA472C0A4
:1030CC00B7FD9326363FF7CC34A5E5F171D8311511
:1030DC0004C723C31896059A071280E2EB27B27532
:1030EC0009832C1A1B6E5AA0523BD6B329E32F84AA
:1030FC0053D100ED20FCB15B6ACBBE394A4C58CFA2
:10310C00D0EFAAFB434D338545F9027F503C9FA875
:10311C0051A3408F929D38F5BCB6DA2110FFF3D243
:10312C00CD0C13EC5F974417C4A77E3D645D1973F7
:10313C0060814FDC222A908846EEB814DE5E0BDBF1
:10314C00E0323A0A4906245CC2D3AC629195E47928
:10315C00E7C8376D8DD54EA96C56F4EA657AAE0882
:10316C00BA78252E1CA6B4C6E8DD741F4BBD8B8A1D
:10317C00703EB5664803F60E613557B986C11D9E83
:10318C00E1F8981169D98E949B1E87E9CE5528DFFA
:10319C008CA1890DBFE6426841992D0FB054BB1626
:1031AC0052096AD53036A538BF40A39E81F3D7FBB0
:1031BC007CE339829B2FFF87348E4344C4DEE9CBFA
:1031CC00547B9432A6C2233DEE4C950B42FAC34E6F
:1031DC00082EA16628D924B2765BA2496D8BD12525
:1031EC0072F8F66486689816D4A45CCC5D65B692C9
:1031FC006C704850FDEDB9DA5E154657A78D9D846D
:10320C0090D8AB008CBCD30AF7E45805B8B345068C
:10321C00D02C1E8FCA3F0F02C1AFBD0301138A6BA6
:10322C003A9111414F67DCEA97F2CFCEF0B4E673D6
:10323C0096AC7422E7AD3585E2F937E81C75DF6E84
:10324C0047F11A711D29C5896FB7620EAA18BE1BEA
:10325C00FC563E4BC6D279209ADBC0FE78CD5AF490
:10326C001FDDA8338807C731B11210592780EC5FD6
:10327C0060517FA919B54A0D2DE57A9F93C99CEF32
:10328C00A0E03B4DAE2AF5B0C8EBBB3C8353996133
:10329C00172B047EBA77D626E169146355210C7D71
:1032AC0000020406080A0C0E10121416181A1C1E22
:1032BC0020222426282A2C2E30323436383A3C3E12
:1032CC0040424446484A4C4E50525456585A5C5E02
:1032DC0060626466686A6C6E70727476787A7C7EF2
:1032EC0080828486888A8C8E90929496989A9C9EE2
:1032FC00A0A2A4A6A8AAACAEB0B2B4B6B8BABCBED2
:10330C00C0C2C4C6C8CACCCED0D2D4D6D8DADCDEC1
:10331C00E0E2E4E6E8EAECEEF0F2F4F6F8FAFCFEB1
:10332C001B191F1D131117150B090F0D0301070591
:10333C003B393F3D333137352B292F2D2321272581
:10334C005B595F5D535157554B494F4D4341474571
:10335C007B797F7D737177756B696F6D6361676561
:10336C009B999F9D939197958B898F8D8381878551
:10337C00BBB9BFBDB3B1B7B5ABA9AFADA3A1A7A541
:10338C00DBD9DFDDD3D1D7D5CBC9CFCDC3C1C7C531
:10339C00FBF9FFFDF3F1F7F5EBE9EFEDE3E1E7E521
:1033AC00000306050C0F0A09181B1E1D1417121119
:1033BC00303336353C3F3A39282B2E2D2427222109
:1033CC00606366656C6F6A69787B7E7D74777271F9
:1033DC00505356555C5F5A59484B4E4D44474241E9
:1033EC00C0C3C6C5CCCFCAC9D8DBDEDDD4D7D2D1D9
:1033FC00F0F3F6F5FCFFFAF9E8EBEEEDE4E7E2E1C9
:10340C00A0A3A6A5ACAFAAA9B8BBBEBDB4B7B2B1B8
:10341C00909396959C9F9A99888B8E8D84878281A8
:10342C009B989D9E97949192838085868F8C898A98
:10343C00ABA8ADAEA7A4A1A2B3B0B5B6BFBCB9BA88
:10344C00FBF8FDFEF7F4F1F2E3E0E5E6EFECE9EA78
:10345C00CBC8CDCEC7C4C1C2D3D0D5D6DFDCD9DA68
:10346C005B585D5E57545152434045464F4C494A58
:10347C006B686D6E67646162737075767F7C797A48
:10348C003B383D3E37343132232025262F2C292A38
:10349C000B080D0E07040102131015161F1C191A28
:1034AC0001020408102040801B3600000009121B8A
:1034BC00242D363F48415A536C657E779099828B08
:1034CC00B4BDA6AFD8D1CAC3FCF5EEE73B32292078
:1034DC001F160D04737A6168575E454CABA2B9B0E8
:1034EC008F869D94E3EAF1F8C7CED5DC767F646DC8
:1034FC00525B40493E372C251A130801E6EFF4FDC8
:10350C00C2CBD0D9AEA7BCB58A8398914D445F5637
:10351C0069607B72050C171E2128333ADDD4CFC6A7
:10352C00F9F0EBE2959C878EB1B8A3AAECE5FEF717
:10353C00C8C1DAD3A4ADB6BF8089929B7C756E6787
:10354C0058514A43343D262F1019020BD7DEC5CCF7
:10355C00F3FAE1E89F968D84BBB2A9A0474E555C67
:10356C00636A71780F061D142B2239309A93888167
:10357C00BEB7ACA5D2DBC0C9F6FFE4ED0A03181147
:10358C002E273C35424B5059666F747DA1A8B3BAB7
:10359C00858C979EE9E0FBF2CDC4DFD63138232A27
:1035AC00151C070E79706B625D544F46000B161D8F
:1035BC002C273A3158534E45747F6269B0BBA6AD87
:1035CC009C978A81E8E3FEF5C4CFD2D97B706D66F7
:1035DC00575C414A2328353E0F041912CBC0DDD667
:1035EC00E7ECF1FA9398858EBFB4A9A2F6FDE0EB57
:1035FC00DAD1CCC7AEA5B8B38289949F464D505B47
:10360C006A617C771E1508033239242F8D869B90B6
:10361C00A1AAB7BCD5DEC3C8F9F2EFE43D362B2026
:10362C00111A070C656E737849425F54F7FCE1EA96
:10363C00DBD0CDC6AFA4B9B28388959E474C515A06
:10364C006B607D761F1409023338252E8C879A9176
:10365C00A0ABB6BDD4DFC2C9F8F3EEE53C372A21E6
:10366C00101B060D646F727948435E55010A171CD6
:10367C002D263B3059524F44757E6368B1BAA7ACC6
:10368C009D968B80E9E2FFF4C5CED3D87A716C6736
:10369C00565D404B2229343F0E051813CAC1DCD7A6
:1036AC00E6EDF0FB9299848FBEB5A8A3000D1A1716
:1036BC0034392E236865727F5C51464BD0DDCAC706
:1036CC00E4E9FEF3B8B5A2AF8C81969BBBB6A1AC76
:1036DC008F829598D3DEC9C4E7EAFDF06B66717CE6
:1036EC005F524548030E1914373A2D206D60777AD6
:1036FC005954434E05081F12313C2B26BDB0A7AAC6
:10370C008984939ED5D8CFC2E1ECFBF6D6DBCCC135
:10371C00E2EFF8F5BEB3A4A98A87909D060B1C11A5
:10372C00323F28256E6374795A57404DDAD7C0CD95
:10373C00EEE3F4F9B2BFA8A5868B9C910A07101D85
:10374C003E332429626F7875565B4C41616C7B76F5
:10375C0055584F420904131E3D30272AB1BCABA665
:10376C0085889F92D9D4C3CEEDE0F7FAB7BAADA055
:10377C00838E9994DFD2C5C8EBE6F1FC676A7D7045
:10378C00535E49440F0215183B36212C0C01161BB5
:10379C003835222F64697E73505D4A47DCD1C6CB25
:1037AC00E8E5F2FFB4B9AEA3808D9A97000E1C1217
:1037BC003836242A707E6C624846545AE0EEFCF28D
:1037CC00D8D6C4CA909E8C82A8A6B4BADBD5C7C979
:1037DC00E3EDFFF1ABA5B7B9939D8F813B3527295D
:1037EC00030D1F114B455759737D6F61ADA3B1BFCD
:1037FC00959B8987DDD3C1CFE5EBF9F74D43515F3D
:10380C00757B69673D33212F050B191776786A6430
:10381C004E40525C06081A143E30222C96988A842C
:10382C00AEA0B2BCE6E8FAF4DED0C2CC414F5D5398
:10383C007977656B313F2D230907151BA1AFBDB3FC
:10384C009997858BD1DFCDC3E9E7F5FB9A948688F0
:10385C00A2ACBEB0EAE4F6F8D2DCCEC07A746668EC
:10386C00424C5E500A041618323C2E20ECE2F0FE5C
:10387C00D4DAC8C69C92808EA4AAB8B60C02101ECC
:10388C00343A28267C72606E444A585637392B25B8
:10389C000F01131D47495B557F71636DD7D9CBC59C
:1038AC00EFE1F3FDA7A9BBB59F91838D0024F40034
:0838BC001000000001000000F3
:04000005080013E9F3
:00000001FF
